:060000000A128A11C42F50
:1001C200C730F000E428F00BE328E728E82808000D
:1001D20001300A128A1148210A128A110B30F400E6
:1001E2006230F300F30BF328F40BF328000008004D
:1001F2007E088A007F0882000A128A11F9200A12F8
:100202008A118000840A04087D0603190034FF0A5B
:100212000319FE0AFD28F4007403031D1129122993
:100222001C297308FF3E0F39803E0A128A114821A9
:100232000A128A1125297308FF3E0F39C03E0A129D
:100242008A1148210A128A1108000A128A11E12031
:100252000A128A113D29730884008317741C8313C0
:1002620000080A128A116D210A128A110130F3075D
:100272000318F40A0030F407730884008317741C0F
:1002820083130008031D462947292C290800F20080
:10029200831203138510051005157208F0398800C2
:1002A20005110A128A11E1200A128A11831203131C
:1002B200051572080F39F10003300310F10DFF3EEE
:1002C200031D5E290310710D880005110A128A119F
:1002D200E1200A128A110800F2008312031385102A
:1002E200051405157208F039880005110A128A11E1
:1002F200E1200A128A1183120313051572080F39BD
:10030200F10003300310F10DFF3E031D832903109A
:10031200710D880005110A128A11E1200A128A1150
:1003220008003F340034063400345B3400344F3468
:100332000034663400346D3400347C3400340734C5
:1003420000347F3400346F3400340034003401341C
:1003520002340434353435343734203431343534CE
:10036200383420343434353435343634003435348A
:10037200303437342034313434343034203434346B
:100382003734333435340034831203130510051126
:1003920085104E30F600EB30F500F50BCE29F60B4A
:1003A200CE2983120313051502300A128A1148213D
:1003B2000A128A110B30F6006230F500F50BDF29C4
:1003C200F60BDF29000028300A128A1148210A128E
:1003D2008A1106300A128A1148210A128A110C3037
:1003E2000A128A1148210A128A110A128A11E92074
:1003F2000A128A1180300A128A1148210A128A11BD
:1004020008002034533441344C34413448344934A4
:1004120020345034453448344C3449345634413411
:100422004E34003420344B3441344D3449344C344E
:100432002034443449344D3449344C3449344C34F6
:1004420045345234003420344B3445345A34423427
:1004520041344E3420344F345A344C3455345434AD
:100462004134533400342034423455344734433415
:100472004534203445344D3449344E3441344734C4
:10048200413400343534393437342034333434345D
:100492003034203436343334333435340034353464
:1004A200373438342034313436343034203438342C
:1004B200333433343534003435343634373420343D
:1004C20037343734303420343534373435343534F6
:1004D2000034353436343834203432343434383419
:1004E200203435343634373434340034353432340D
:1004F20033342034313432343434203436343534E5
:1005020034343534003435343334333420343534F0
:1005120038343034203438343934363434340034D6
:10052200483441345434493443344534203441341A
:100532004B3454344F345234453420340034203454
:100542004934423452344134483449344D342034ED
:1005520045345234533441344E3400342034573409
:1005620041344C34453445344434203446344134E7
:10057200443445344C3400342034533441345234FE
:10058200413420344B3441344E34443455344C34A9
:100592005534003435343834363420343834353434
:1005A2003334203432343734393433340034203461
:1005B20041344C344934203448344134593444347D
:1005C200413452340034FF30F0007008F6008312D8
:1005D20003133608F3003708F4003808F500F70172
:1005E2007708733E840000088900071CF92AFA2A5A
:1005F200182B7708031DFE2AFF2A022BF601F60AA2
:100602007A2B7703031D062B072B0C2B0230F000ED
:100612007008F6007A2B02307706031D112B122B7D
:10062200172B0330F0007008F6007A2B7A2B871C08
:100632001B2B1C2B3B2B7708031D202B212B262B3E
:100642000430F0007008F6007A2B7703031D2A2B82
:100652002B2B302B0530F0007008F6007A2B02307D
:100662007706031D352B362B172B0630F00070084A
:10067200F6007A2B071D3E2B3F2B5E2B7708031DBE
:10068200432B442B492B0730F0007008F6007A2BDD
:100692007703031D4D2B4E2B532B0830F0007008AF
:1006A200F6007A2B02307706031D582B592B172B95
:1006B2000930F0007008F6007A2B871D612B622B3F
:1006C2007A2B7708031D662B672B6C2B1430F000F6
:1006D2007008F6007A2B7703031D702B712B732B96
:1006E200F6017A2B02307706031D782B792B172B14
:1006F200672B0130F0007008F70703307702031C04
:10070200832B842BF12A760A031D882B892B932BAA
:100712001A30F100F830F000F00B8D2BF10B8D2B1D
:100722000000A02B0930F2001E30F100E430F0008E
:10073200F00B992BF10B992BF20B992B00007608F9
:1007420008000630831603139F00850188010F30CD
:100752008700860189018312031386010A128A1116
:10076200E4220A128A11F800780883120313E700C0
:10077200670A0319BD2BBE2BAF2B6703031DC22BC8
:10078200C32B332C6708F8007807203E84008313BC
:10079200000886000A128A11C5210A128A11213024
:1007A200F3000130F4000A128A1126210A128A117A
:1007B200F301F30A02300A128A110C210A128A1179
:1007C2004630F3000030F4000A128A1126210A1280
:1007D2008A1183120313D301D40183120313530822
:1007E200463E84002030831300060319F92BFA2BAE
:1007F200182C5308463E84000008F800F9017808D6
:10080200E5007908E6006508F8007807C03E840034
:10081200000886003D30FA00E130F9003F30F80070
:10082200F80B112CF90B112CFA0B112C182C01308E
:1008320083120313D3070318D40A0030D4075408D1
:10084200803AFF0080307F02031D292C0C305302B6
:10085200031C2C2C2D2CEE2B0A128A11C5210A12F4
:100862008A11AC2B02306706031D382C392CA42CBC
:100872006708F8007807203E84008313000886008A
:100882000A128A11C5210A128A11D730F3000130E7
:10089200F4000A128A1126210A128A11F301F30ABC
:1008A20002300A128A110C210A128A113930F3001D
:1008B2000030F4000A128A1126210A128A118312C8
:1008C2000313D501D601831203135508393E840060
:1008D20020308313000603196F2C702C8E2C5508C0
:1008E200393E84000008F800F9017808E50079082B
:1008F200E6006508F8007807C03E8400000886001C
:100902003D30FA00E130F9003F30F800F80B872C57
:10091200F90B872CFA0B872C8E2C013083120313D0
:10092200D5070318D60A0030D6075608803AFF00CA
:1009320080307F02031D9F2C0C305502031CA22C19
:10094200A32C642C2D2C03306706031DA92CAA2C82
:10095200152D6708F8007807203E840083130008ED
:1009620086000A128A11C5210A128A119F30F300E9
:100972000130F4000A128A1126210A128A11F301A7
:10098200F30A02300A128A110C210A128A11E1308A
:10099200F3000030F4000A128A1126210A128A1189
:1009A20083120313D701D801831203135708E13EC0
:1009B20084002030831300060319E02CE12CFF2C65
:1009C2005708E13E84000008F800F9017808E500C4
:1009D2007908E6006508F8007807C03E8400000840
:1009E20086003D30FA00E130F9003F30F800F80BA4
:1009F200F82CF90BF82CFA0BF82CFF2C013083128F
:100A02000313D7070318D80A0030D8075808803ACA
:100A1200FF0080307F02031D102D0C305702031C93
:100A2200132D142DD52C2D2C04306706031D1A2DE1
:100A32001B2D862D6708F8007807203E840083135B
:100A4200000886000A128A11C5210A128A11903002
:100A5200F3000130F4000A128A1126210A128A11C7
:100A6200F301F30A02300A128A110C210A128A11C6
:100A7200D430F3000030F4000A128A1126210A123F
:100A82008A1183120313D901DA018312031359085D
:100A9200D43E84002030831300060319512D522DB9
:100AA200702D5908D43E84000008F800F901780836
:100AB200E5007908E6006508F8007807C03E840082
:100AC200000886003D30FA00E130F9003F30F800BE
:100AD200F80B692DF90B692DFA0B692D702D013078
:100AE20083120313D9070318DA0A0030DA075A0807
:100AF200803AFF0080307F02031D812D0C305902A5
:100B0200031C842D852D462D2D2C05306706031DD3
:100B12008B2D8C2DF72D6708F8007807203E840076
:100B22008313000886000A128A11C5210A128A114B
:100B32003230F3000130F4000A128A1126210A121F
:100B42008A11F301F30A02300A128A110C210A12E5
:100B52008A11C730F3000030F4000A128A112621EC
:100B62000A128A1183120313DB01DC0183120313BD
:100B72005B08C73E84002030831300060319C22D90
:100B8200C32DE12D5B08C73E84000008F800F9017F
:100B92007808E5007908E6006508F8007807C03EA5
:100BA2008400000886003D30FA00E130F9003F3051
:100BB200F800F80BDA2DF90BDA2DFA0BDA2DE12D0C
:100BC200013083120313DB070318DC0A0030DC0751
:100BD2005C08803AFF0080307F02031DF22D0C304A
:100BE2005B02031CF52DF62DB72D2D2C0630670662
:100BF200031DFC2DFD2D692E6708F8007807203EA5
:100C020084008313000886000A128A11C5210A1281
:100C12008A11BC30F3000130F4000A128A11262135
:100C22000A128A11F301F30A02300A128A110C2104
:100C32000A128A11BA30F3000030F4000A128A1143
:100C420026210A128A1183120313DD01DE015E08D6
:100C5200803AFF0080307F02031D312E0C305D028E
:100C6200031C342E352E362E2D2C831203135D08D1
:100C7200BA3E84002030831300060319412E422E0F
:100C8200602E5D08BA3E84000008F800F901780879
:100C9200E5007908E6006508F8007807C03E8400A0
:100CA200000886003D30FA00E130F9003F30F800DC
:100CB200F80B592EF90B592EFA0B592E602E0130D2
:100CC20083120313DD070318DE0A0030DE07282E25
:100CD20007306706031D6E2E6F2EDB2E6708F800A5
:100CE2007807203E84008313000886000A128A11C6
:100CF200C5210A128A111030F3000130F4000A12E1
:100D02008A1126210A128A11F301F30A02300A1209
:100D12008A110C210A128A11AD30F3000030F4005E
:100D22000A128A1126210A128A1183120313DF0181
:100D3200E0016008803AFF0080307F02031DA32E8D
:100D42000C305F02031CA62EA72EA82E2D2C831278
:100D520003135F08AD3E840020308313000603199D
:100D6200B32EB42ED22E5F08AD3E84000008F800E8
:100D7200F9017808E5007908E6006508F8007807C7
:100D8200C03E8400000886003D30FA00E130F900E0
:100D92003F30F800F80BCB2EF90BCB2EFA0BCB2EF3
:100DA200D22E013083120313DF070318E00A00304A
:100DB200E0079A2E08306706031DE02EE12E4D2F24
:100DC2006708F8007807203E840083130008860035
:100DD2000A128A11C5210A128A114230F300013027
:100DE200F4000A128A1126210A128A11F301F30A67
:100DF20002300A128A110C210A128A11A030F30061
:100E02000030F4000A128A1126210A128A11831272
:100E12000313E101E2016208803AFF0080307F02A1
:100E2200031D152F0C306102031C182F192F1A2FC6
:100E32002D2C831203136108A03E840020308313FB
:100E420000060319252F262F442F6108A03E840097
:100E52000008F800F9017808E5007908E60065085D
:100E6200F8007807C03E8400000886003D30FA0092
:100E7200E130F9003F30F800F80B3D2FF90B3D2F20
:100E8200FA0B3D2F442F013083120313E10703189D
:100E9200E20A0030E2070C2F09306706031D522FC9
:100EA200532FC02F6708F8007807203E8400831371
:100EB200000886000A128A11C5210A128A11AE3070
:100EC200F3000130F4000A128A1126210A128A1153
:100ED200F301F30A02300A128A110C210A128A1152
:100EE200CA30F3000130F4000A128A1126210A12D4
:100EF2008A1183120313E301E4016408803AFF00BC
:100F020080307F02031D872F0C306302031C8A2F5F
:100F12008B2F8C2F2D2C831203136308CA3E84005F
:100F22002030831700060319972F982FB72F6308D5
:100F3200CA3E84000008F800F9017808E500790843
:100F4200E6006508F8007807C03E840083130008B5
:100F520086003D30FA00E130F9003F30F800F80B2E
:100F6200B02FF90BB02FFA0BB02FB72F013083122D
:100F72000313E3070318E40A0030E4077E2FAF2BC4
:100F82000A128A1100288317E330FD000230FE00A6
:100F92009130FF00903084000A128A11FD200A125B
:100FA2008A115130FD000230FE000230FF00103085
:100FB20084000A128A11FD200A128A118313EE306C
:100FC200FD000230FE004330FF00A03084000A1210
:100FD2008A11FD200A128A115330FD000130FE00F1
:100FE2009230FF00203084000A128A11FD200A127A
:0E0FF2008A11FB01FC0183010A128A11A22B55
:08400000FF3FFF3FFF3FFF3FC0
:02400E00FB3F76
:00000001FF
